{
  "_format": "hh-sol-artifact-1",
  "contractName": "Abstraction",
  "sourceName": "contracts/Abstraction.sol",
  "abi": [
    {
      "inputs": [],
      "stateMutability": "nonpayable",
      "type": "constructor"
    },
    {
      "anonymous": false,
      "inputs": [
        {
          "indexed": true,
          "internalType": "address",
          "name": "owner",
          "type": "address"
        },
        {
          "indexed": true,
          "internalType": "address",
          "name": "approved",
          "type": "address"
        },
        {
          "indexed": true,
          "internalType": "uint256",
          "name": "tokenId",
          "type": "uint256"
        }
      ],
      "name": "Approval",
      "type": "event"
    },
    {
      "anonymous": false,
      "inputs": [
        {
          "indexed": true,
          "internalType": "address",
          "name": "owner",
          "type": "address"
        },
        {
          "indexed": true,
          "internalType": "address",
          "name": "operator",
          "type": "address"
        },
        {
          "indexed": false,
          "internalType": "bool",
          "name": "approved",
          "type": "bool"
        }
      ],
      "name": "ApprovalForAll",
      "type": "event"
    },
    {
      "anonymous": false,
      "inputs": [
        {
          "indexed": true,
          "internalType": "address",
          "name": "buyer",
          "type": "address"
        },
        {
          "indexed": false,
          "internalType": "uint256",
          "name": "tokenId",
          "type": "uint256"
        }
      ],
      "name": "BuyTokenEvent",
      "type": "event"
    },
    {
      "anonymous": false,
      "inputs": [
        {
          "indexed": false,
          "internalType": "uint256",
          "name": "tokenId",
          "type": "uint256"
        },
        {
          "indexed": false,
          "internalType": "uint256",
          "name": "tokenPrice",
          "type": "uint256"
        },
        {
          "indexed": true,
          "internalType": "address",
          "name": "seller",
          "type": "address"
        },
        {
          "indexed": true,
          "internalType": "address",
          "name": "owner",
          "type": "address"
        },
        {
          "indexed": false,
          "internalType": "bool",
          "name": "sold",
          "type": "bool"
        }
      ],
      "name": "CreateTokenItemEvent",
      "type": "event"
    },
    {
      "anonymous": false,
      "inputs": [
        {
          "indexed": true,
          "internalType": "address",
          "name": "from",
          "type": "address"
        },
        {
          "indexed": true,
          "internalType": "address",
          "name": "to",
          "type": "address"
        },
        {
          "indexed": false,
          "internalType": "uint256",
          "name": "tokenId",
          "type": "uint256"
        }
      ],
      "name": "GiftTokenEvent",
      "type": "event"
    },
    {
      "anonymous": false,
      "inputs": [
        {
          "indexed": true,
          "internalType": "address",
          "name": "minter",
          "type": "address"
        },
        {
          "indexed": false,
          "internalType": "uint256",
          "name": "tokenId",
          "type": "uint256"
        }
      ],
      "name": "MintNewTokenEvent",
      "type": "event"
    },
    {
      "anonymous": false,
      "inputs": [
        {
          "indexed": true,
          "internalType": "address",
          "name": "from",
          "type": "address"
        },
        {
          "indexed": true,
          "internalType": "address",
          "name": "to",
          "type": "address"
        },
        {
          "indexed": true,
          "internalType": "uint256",
          "name": "tokenId",
          "type": "uint256"
        }
      ],
      "name": "Transfer",
      "type": "event"
    },
    {
      "inputs": [
        {
          "internalType": "address",
          "name": "to",
          "type": "address"
        },
        {
          "internalType": "uint256",
          "name": "tokenId",
          "type": "uint256"
        }
      ],
      "name": "approve",
      "outputs": [],
      "stateMutability": "nonpayable",
      "type": "function"
    },
    {
      "inputs": [
        {
          "internalType": "address",
          "name": "owner",
          "type": "address"
        }
      ],
      "name": "balanceOf",
      "outputs": [
        {
          "internalType": "uint256",
          "name": "",
          "type": "uint256"
        }
      ],
      "stateMutability": "view",
      "type": "function"
    },
    {
      "inputs": [],
      "name": "fetchAllTokenItems",
      "outputs": [
        {
          "components": [
            {
              "internalType": "uint256",
              "name": "tokenId",
              "type": "uint256"
            },
            {
              "internalType": "uint256",
              "name": "tokenPrice",
              "type": "uint256"
            },
            {
              "internalType": "address payable",
              "name": "seller",
              "type": "address"
            },
            {
              "internalType": "address payable",
              "name": "owner",
              "type": "address"
            },
            {
              "internalType": "bool",
              "name": "sold",
              "type": "bool"
            }
          ],
          "internalType": "struct Abstraction.TokenItem[]",
          "name": "",
          "type": "tuple[]"
        }
      ],
      "stateMutability": "view",
      "type": "function"
    },
    {
      "inputs": [],
      "name": "fetchMyTokens",
      "outputs": [
        {
          "internalType": "uint256[]",
          "name": "",
          "type": "uint256[]"
        }
      ],
      "stateMutability": "view",
      "type": "function"
    },
    {
      "inputs": [
        {
          "internalType": "uint256",
          "name": "tokenId",
          "type": "uint256"
        }
      ],
      "name": "getApproved",
      "outputs": [
        {
          "internalType": "address",
          "name": "",
          "type": "address"
        }
      ],
      "stateMutability": "view",
      "type": "function"
    },
    {
      "inputs": [
        {
          "internalType": "uint256",
          "name": "_tokenId",
          "type": "uint256"
        },
        {
          "internalType": "address",
          "name": "_beneficiary",
          "type": "address"
        }
      ],
      "name": "giftToken",
      "outputs": [],
      "stateMutability": "payable",
      "type": "function"
    },
    {
      "inputs": [
        {
          "internalType": "address",
          "name": "owner",
          "type": "address"
        },
        {
          "internalType": "address",
          "name": "operator",
          "type": "address"
        }
      ],
      "name": "isApprovedForAll",
      "outputs": [
        {
          "internalType": "bool",
          "name": "",
          "type": "bool"
        }
      ],
      "stateMutability": "view",
      "type": "function"
    },
    {
      "inputs": [
        {
          "internalType": "string",
          "name": "_tokenUri",
          "type": "string"
        },
        {
          "internalType": "uint256",
          "name": "_tokenPrice",
          "type": "uint256"
        }
      ],
      "name": "mint",
      "outputs": [],
      "stateMutability": "payable",
      "type": "function"
    },
    {
      "inputs": [],
      "name": "name",
      "outputs": [
        {
          "internalType": "string",
          "name": "",
          "type": "string"
        }
      ],
      "stateMutability": "view",
      "type": "function"
    },
    {
      "inputs": [
        {
          "internalType": "uint256",
          "name": "tokenId",
          "type": "uint256"
        }
      ],
      "name": "ownerOf",
      "outputs": [
        {
          "internalType": "address",
          "name": "",
          "type": "address"
        }
      ],
      "stateMutability": "view",
      "type": "function"
    },
    {
      "inputs": [
        {
          "internalType": "uint256",
          "name": "_tokenId",
          "type": "uint256"
        }
      ],
      "name": "purchaseToken",
      "outputs": [],
      "stateMutability": "payable",
      "type": "function"
    },
    {
      "inputs": [
        {
          "internalType": "address",
          "name": "from",
          "type": "address"
        },
        {
          "internalType": "address",
          "name": "to",
          "type": "address"
        },
        {
          "internalType": "uint256",
          "name": "tokenId",
          "type": "uint256"
        }
      ],
      "name": "safeTransferFrom",
      "outputs": [],
      "stateMutability": "nonpayable",
      "type": "function"
    },
    {
      "inputs": [
        {
          "internalType": "address",
          "name": "from",
          "type": "address"
        },
        {
          "internalType": "address",
          "name": "to",
          "type": "address"
        },
        {
          "internalType": "uint256",
          "name": "tokenId",
          "type": "uint256"
        },
        {
          "internalType": "bytes",
          "name": "_data",
          "type": "bytes"
        }
      ],
      "name": "safeTransferFrom",
      "outputs": [],
      "stateMutability": "nonpayable",
      "type": "function"
    },
    {
      "inputs": [
        {
          "internalType": "uint256",
          "name": "_tokenId",
          "type": "uint256"
        },
        {
          "internalType": "uint256",
          "name": "_newPrice",
          "type": "uint256"
        }
      ],
      "name": "sellToken",
      "outputs": [],
      "stateMutability": "nonpayable",
      "type": "function"
    },
    {
      "inputs": [
        {
          "internalType": "address",
          "name": "operator",
          "type": "address"
        },
        {
          "internalType": "bool",
          "name": "approved",
          "type": "bool"
        }
      ],
      "name": "setApprovalForAll",
      "outputs": [],
      "stateMutability": "nonpayable",
      "type": "function"
    },
    {
      "inputs": [
        {
          "internalType": "bytes4",
          "name": "interfaceId",
          "type": "bytes4"
        }
      ],
      "name": "supportsInterface",
      "outputs": [
        {
          "internalType": "bool",
          "name": "",
          "type": "bool"
        }
      ],
      "stateMutability": "view",
      "type": "function"
    },
    {
      "inputs": [],
      "name": "symbol",
      "outputs": [
        {
          "internalType": "string",
          "name": "",
          "type": "string"
        }
      ],
      "stateMutability": "view",
      "type": "function"
    },
    {
      "inputs": [],
      "name": "tokenId",
      "outputs": [
        {
          "internalType": "uint256",
          "name": "_value",
          "type": "uint256"
        }
      ],
      "stateMutability": "view",
      "type": "function"
    },
    {
      "inputs": [
        {
          "internalType": "uint256",
          "name": "",
          "type": "uint256"
        }
      ],
      "name": "tokenItems",
      "outputs": [
        {
          "internalType": "uint256",
          "name": "tokenId",
          "type": "uint256"
        },
        {
          "internalType": "uint256",
          "name": "tokenPrice",
          "type": "uint256"
        },
        {
          "internalType": "address payable",
          "name": "seller",
          "type": "address"
        },
        {
          "internalType": "address payable",
          "name": "owner",
          "type": "address"
        },
        {
          "internalType": "bool",
          "name": "sold",
          "type": "bool"
        }
      ],
      "stateMutability": "view",
      "type": "function"
    },
    {
      "inputs": [],
      "name": "tokenSold",
      "outputs": [
        {
          "internalType": "uint256",
          "name": "_value",
          "type": "uint256"
        }
      ],
      "stateMutability": "view",
      "type": "function"
    },
    {
      "inputs": [
        {
          "internalType": "uint256",
          "name": "tokenId",
          "type": "uint256"
        }
      ],
      "name": "tokenURI",
      "outputs": [
        {
          "internalType": "string",
          "name": "",
          "type": "string"
        }
      ],
      "stateMutability": "view",
      "type": "function"
    },
    {
      "inputs": [
        {
          "internalType": "address",
          "name": "from",
          "type": "address"
        },
        {
          "internalType": "address",
          "name": "to",
          "type": "address"
        },
        {
          "internalType": "uint256",
          "name": "tokenId",
          "type": "uint256"
        }
      ],
      "name": "transferFrom",
      "outputs": [],
      "stateMutability": "nonpayable",
      "type": "function"
    }
  ],
  "bytecode": "0x60806040523480156200001157600080fd5b50604080518082018252601781527f4162737472616374696f6e20436f6c6c65637469626c6500000000000000000060208083019182528351808501909452600384526241425360e81b9084015281519192916200007291600091620000a3565b50805162000088906001906020840190620000a3565b5050600980546001600160a01b031916331790555062000186565b828054620000b19062000149565b90600052602060002090601f016020900481019282620000d5576000855562000120565b82601f10620000f057805160ff191683800117855562000120565b8280016001018555821562000120579182015b828111156200012057825182559160200191906001019062000103565b506200012e92915062000132565b5090565b5b808211156200012e576000815560010162000133565b600181811c908216806200015e57607f821691505b602082108114156200018057634e487b7160e01b600052602260045260246000fd5b50919050565b6124b180620001966000396000f3fe6080604052600436106101755760003560e01c8063599e2364116100cb578063b88d4fde1161007f578063cb1021e911610059578063cb1021e914610446578063dcabb48314610468578063e985e9c51461048a57600080fd5b8063b88d4fde146103f3578063c2db2c4214610413578063c87b56dd1461042657600080fd5b806370a08231116100b057806370a082311461039e57806395d89b41146103be578063a22cb465146103d357600080fd5b8063599e2364146102ed5780636352211e1461037e57600080fd5b806317d70f7c1161012d57806342842e0e1161010757806342842e0e146102a3578063519ee19e146102c357806358beb7c1146102da57600080fd5b806317d70f7c1461023e5780631897bcf31461026357806323b872dd1461028357600080fd5b806306fdde031161015e57806306fdde03146101c4578063081812fc146101e6578063095ea7b31461021e57600080fd5b806301ffc9a71461017a578063056b01ce146101af575b600080fd5b34801561018657600080fd5b5061019a6101953660046120f2565b6104d3565b60405190151581526020015b60405180910390f35b6101c26101bd36600461212a565b610570565b005b3480156101d057600080fd5b506101d96106c4565b6040516101a69190612334565b3480156101f257600080fd5b50610206610201366004612180565b610756565b6040516001600160a01b0390911681526020016101a6565b34801561022a57600080fd5b506101c26102393660046120c9565b6107f0565b34801561024a57600080fd5b506007546102559081565b6040519081526020016101a6565b34801561026f57600080fd5b506101c261027e3660046121ba565b610922565b34801561028f57600080fd5b506101c261029e366004611fdb565b610acb565b3480156102af57600080fd5b506101c26102be366004611fdb565b610b52565b3480156102cf57600080fd5b506008546102559081565b6101c26102e8366004612198565b610b6d565b3480156102f957600080fd5b50610348610308366004612180565b600a602052600090815260409020805460018201546002830154600390930154919290916001600160a01b0391821691811690600160a01b900460ff1685565b6040805195865260208601949094526001600160a01b03928316938501939093521660608301521515608082015260a0016101a6565b34801561038a57600080fd5b50610206610399366004612180565b610c39565b3480156103aa57600080fd5b506102556103b9366004611f8f565b610cc4565b3480156103ca57600080fd5b506101d9610d5e565b3480156103df57600080fd5b506101c26103ee36600461208f565b610d6d565b3480156103ff57600080fd5b506101c261040e366004612016565b610d78565b6101c2610421366004612180565b610e06565b34801561043257600080fd5b506101d9610441366004612180565b610f6b565b34801561045257600080fd5b5061045b6110fe565b6040516101a69190612272565b34801561047457600080fd5b5061047d61128b565b6040516101a691906122f0565b34801561049657600080fd5b5061019a6104a5366004611fa9565b6001600160a01b03918216600090815260056020908152604080832093909416825291909152205460ff1690565b60006001600160e01b031982167f80ac58cd00000000000000000000000000000000000000000000000000000000148061053657506001600160e01b031982167f5b5e139f00000000000000000000000000000000000000000000000000000000145b8061056a57507f01ffc9a7000000000000000000000000000000000000000000000000000000006001600160e01b03198316145b92915050565b600061057b60075490565b905061058b600780546001019055565b6105953382611370565b61059f818461138a565b6040805160a0810182528281526020808201858152338385018181523060608087018281526000608089018181528b8252600a89528a822099518a55965160018a015593516002890180546001600160a01b0319166001600160a01b0392831617905590516003909801805496519890911674ffffffffffffffffffffffffffffffffffffffffff1990961695909517600160a01b971515979097029690961790935585518781529384018890528386015293519093927fa8c25acea3cf3e5008cf415deec1a51eecefd88e6712ff26f463c700bf39a3c0928290030190a3610689333083611433565b60405181815233907f647b02b78925d2df82f05940db18f6f5d1da1382ccbf534bc218cf3420e613fc906020015b60405180910390a2505050565b6060600080546106d3906123b6565b80601f01602080910402602001604051908101604052809291908181526020018280546106ff906123b6565b801561074c5780601f106107215761010080835404028352916020019161074c565b820191906000526020600020905b81548152906001019060200180831161072f57829003601f168201915b5050505050905090565b6000818152600260205260408120546001600160a01b03166107d45760405162461bcd60e51b815260206004820152602c60248201527f4552433732313a20617070726f76656420717565727920666f72206e6f6e657860448201526b34b9ba32b73a103a37b5b2b760a11b60648201526084015b60405180910390fd5b506000908152600460205260409020546001600160a01b031690565b60006107fb82610c39565b9050806001600160a01b0316836001600160a01b031614156108855760405162461bcd60e51b815260206004820152602160248201527f4552433732313a20617070726f76616c20746f2063757272656e74206f776e6560448201527f720000000000000000000000000000000000000000000000000000000000000060648201526084016107cb565b336001600160a01b03821614806108a157506108a181336104a5565b6109135760405162461bcd60e51b815260206004820152603860248201527f4552433732313a20617070726f76652063616c6c6572206973206e6f74206f7760448201527f6e6572206e6f7220617070726f76656420666f7220616c6c000000000000000060648201526084016107cb565b61091d8383611600565b505050565b3361092c83610c39565b6001600160a01b0316146109825760405162461bcd60e51b815260206004820152601660248201527f596f7520617265206e6f7420746865206f776e6572210000000000000000000060448201526064016107cb565b600081116109d25760405162461bcd60e51b815260206004820152600e60248201527f507269636520746f6f206c6f772100000000000000000000000000000000000060448201526064016107cb565b6040805160a0810182528381526020808201848152338385019081523060608501908152600060808601818152898252600a909552959095209351845590516001840155516002830180546001600160a01b0319166001600160a01b0392831617905592516003909201805491519290931674ffffffffffffffffffffffffffffffffffffffffff1990911617600160a01b91151591909102179055610a78600861166e565b60408051838152602081018390526000818301529051309133917fa8c25acea3cf3e5008cf415deec1a51eecefd88e6712ff26f463c700bf39a3c09181900360600190a3610ac7333084611433565b5050565b610ad533826116c5565b610b475760405162461bcd60e51b815260206004820152603160248201527f4552433732313a207472616e736665722063616c6c6572206973206e6f74206f60448201527f776e6572206e6f7220617070726f76656400000000000000000000000000000060648201526084016107cb565b61091d838383611433565b61091d83838360405180602001604052806000815250610d78565b33610b7783610c39565b6001600160a01b031614610bcd5760405162461bcd60e51b815260206004820152601660248201527f596f7520617265206e6f7420746865206f776e6572210000000000000000000060448201526064016107cb565b6001600160a01b038116610be057600080fd5b33610bea57600080fd5b610bf5338284610acb565b6040518281526001600160a01b0382169033907f9ed4abfdd337315f9833243557bb7e095bd19affed956ef8c1c37e095846deb09060200160405180910390a35050565b6000818152600260205260408120546001600160a01b03168061056a5760405162461bcd60e51b815260206004820152602960248201527f4552433732313a206f776e657220717565727920666f72206e6f6e657869737460448201527f656e7420746f6b656e000000000000000000000000000000000000000000000060648201526084016107cb565b60006001600160a01b038216610d425760405162461bcd60e51b815260206004820152602a60248201527f4552433732313a2062616c616e636520717565727920666f7220746865207a6560448201527f726f20616464726573730000000000000000000000000000000000000000000060648201526084016107cb565b506001600160a01b031660009081526003602052604090205490565b6060600180546106d3906123b6565b610ac73383836117bb565b610d8233836116c5565b610df45760405162461bcd60e51b815260206004820152603160248201527f4552433732313a207472616e736665722063616c6c6572206973206e6f74206f60448201527f776e6572206e6f7220617070726f76656400000000000000000000000000000060648201526084016107cb565b610e008484848461188a565b50505050565b6000818152600a602052604090206001015434811115610e685760405162461bcd60e51b815260206004820152601360248201527f696e73756666696369656e742066756e6473210000000000000000000000000060448201526064016107cb565b6000828152600a602052604090206002810180546001600160a01b03198116909155600390910180547fffffffffffffffffffffff00ffffffffffffffffffffffffffffffffffffffff3390811674ffffffffffffffffffffffffffffffffffffffffff1990921691909117600160a01b179091556001600160a01b0390911690610ef590309085611433565b610f03600880546001019055565b6040516001600160a01b038216903480156108fc02916000818181858888f19350505050158015610f38573d6000803e3d6000fd5b5060405183815233907feb6e09b8b749e1158b1fe04de6f27c0b18d3f7c1ac74f88e11b6e3ce09a9bab2906020016106b7565b6000818152600260205260409020546060906001600160a01b0316610ff85760405162461bcd60e51b815260206004820152603160248201527f45524337323155524953746f726167653a2055524920717565727920666f722060448201527f6e6f6e6578697374656e7420746f6b656e00000000000000000000000000000060648201526084016107cb565b60008281526006602052604081208054611011906123b6565b80601f016020809104026020016040519081016040528092919081815260200182805461103d906123b6565b801561108a5780601f1061105f5761010080835404028352916020019161108a565b820191906000526020600020905b81548152906001019060200180831161106d57829003601f168201915b5050505050905060006110a860408051602081019091526000815290565b90508051600014156110bb575092915050565b8151156110ed5780826040516020016110d5929190612207565b60405160208183030381529060405292505050919050565b6110f684611908565b949350505050565b606060008061110c60075490565b9050600061111960085490565b6111239083612373565b905060008167ffffffffffffffff81111561114e57634e487b7160e01b600052604160045260246000fd5b6040519080825280602002602001820160405280156111a757816020015b6040805160a08101825260008082526020808301829052928201819052606082018190526080820152825260001990920191018161116c5790505b50905060005b83811015611282576000818152600a6020526040902060030154600160a01b900460ff16611270576000818152600a6020908152604091829020825160a0810184528154815260018201549281019290925260028101546001600160a01b0390811693830193909352600301549182166060820152600160a01b90910460ff1615156080820152825183908790811061125657634e487b7160e01b600052603260045260246000fd5b6020026020010181905250848061126c906123f1565b9550505b8061127a816123f1565b9150506111ad565b50949350505050565b606060008061129960075490565b905060006112a633610cc4565b67ffffffffffffffff8111156112cc57634e487b7160e01b600052604160045260246000fd5b6040519080825280602002602001820160405280156112f5578160200160208202803683370190505b50905060005b82811015611368573361130d82610c39565b6001600160a01b03161415611356578082858151811061133d57634e487b7160e01b600052603260045260246000fd5b602090810291909101015283611352816123f1565b9450505b80611360816123f1565b9150506112fb565b509392505050565b610ac78282604051806020016040528060008152506119fe565b6000828152600260205260409020546001600160a01b03166114145760405162461bcd60e51b815260206004820152602e60248201527f45524337323155524953746f726167653a2055524920736574206f66206e6f6e60448201527f6578697374656e7420746f6b656e00000000000000000000000000000000000060648201526084016107cb565b6000828152600660209081526040909120825161091d92840190611e64565b826001600160a01b031661144682610c39565b6001600160a01b0316146114c25760405162461bcd60e51b815260206004820152602560248201527f4552433732313a207472616e736665722066726f6d20696e636f72726563742060448201527f6f776e657200000000000000000000000000000000000000000000000000000060648201526084016107cb565b6001600160a01b03821661153d5760405162461bcd60e51b8152602060048201526024808201527f4552433732313a207472616e7366657220746f20746865207a65726f2061646460448201527f726573730000000000000000000000000000000000000000000000000000000060648201526084016107cb565b611548600082611600565b6001600160a01b0383166000908152600360205260408120805460019290611571908490612373565b90915550506001600160a01b038216600090815260036020526040812080546001929061159f908490612347565b909155505060008181526002602052604080822080546001600160a01b0319166001600160a01b0386811691821790925591518493918716917fddf252ad1be2c89b69c2b068fc378daa952ba7f163c4a11628f55a4df523b3ef91a4505050565b600081815260046020526040902080546001600160a01b0319166001600160a01b038416908117909155819061163582610c39565b6001600160a01b03167f8c5be1e5ebec7d5bd14f71427d1e84f3dd0314c0f7b2291e5b200ac8c7c3b92560405160405180910390a45050565b8054806116bd5760405162461bcd60e51b815260206004820152601b60248201527f436f756e7465723a2064656372656d656e74206f766572666c6f77000000000060448201526064016107cb565b600019019055565b6000818152600260205260408120546001600160a01b031661173e5760405162461bcd60e51b815260206004820152602c60248201527f4552433732313a206f70657261746f7220717565727920666f72206e6f6e657860448201526b34b9ba32b73a103a37b5b2b760a11b60648201526084016107cb565b600061174983610c39565b9050806001600160a01b0316846001600160a01b0316148061179057506001600160a01b0380821660009081526005602090815260408083209388168352929052205460ff165b806110f65750836001600160a01b03166117a984610756565b6001600160a01b031614949350505050565b816001600160a01b0316836001600160a01b0316141561181d5760405162461bcd60e51b815260206004820152601960248201527f4552433732313a20617070726f766520746f2063616c6c65720000000000000060448201526064016107cb565b6001600160a01b03838116600081815260056020908152604080832094871680845294825291829020805460ff191686151590811790915591519182527f17307eab39ab6107e8899845ad3d59bd9653f200f220920489ca2b5937696c31910160405180910390a3505050565b611895848484611433565b6118a184848484611a7c565b610e005760405162461bcd60e51b815260206004820152603260248201527f4552433732313a207472616e7366657220746f206e6f6e20455243373231526560448201527131b2b4bb32b91034b6b83632b6b2b73a32b960711b60648201526084016107cb565b6000818152600260205260409020546060906001600160a01b03166119955760405162461bcd60e51b815260206004820152602f60248201527f4552433732314d657461646174613a2055524920717565727920666f72206e6f60448201527f6e6578697374656e7420746f6b656e000000000000000000000000000000000060648201526084016107cb565b60006119ac60408051602081019091526000815290565b905060008151116119cc57604051806020016040528060008152506119f7565b806119d684611bd4565b6040516020016119e7929190612207565b6040516020818303038152906040525b9392505050565b611a088383611d22565b611a156000848484611a7c565b61091d5760405162461bcd60e51b815260206004820152603260248201527f4552433732313a207472616e7366657220746f206e6f6e20455243373231526560448201527131b2b4bb32b91034b6b83632b6b2b73a32b960711b60648201526084016107cb565b60006001600160a01b0384163b15611bc957604051630a85bd0160e11b81526001600160a01b0385169063150b7a0290611ac0903390899088908890600401612236565b602060405180830381600087803b158015611ada57600080fd5b505af1925050508015611b0a575060408051601f3d908101601f19168201909252611b079181019061210e565b60015b611baf573d808015611b38576040519150601f19603f3d011682016040523d82523d6000602084013e611b3d565b606091505b508051611ba75760405162461bcd60e51b815260206004820152603260248201527f4552433732313a207472616e7366657220746f206e6f6e20455243373231526560448201527131b2b4bb32b91034b6b83632b6b2b73a32b960711b60648201526084016107cb565b805181602001fd5b6001600160e01b031916630a85bd0160e11b1490506110f6565b506001949350505050565b606081611c1457505060408051808201909152600181527f3000000000000000000000000000000000000000000000000000000000000000602082015290565b8160005b8115611c3e5780611c28816123f1565b9150611c379050600a8361235f565b9150611c18565b60008167ffffffffffffffff811115611c6757634e487b7160e01b600052604160045260246000fd5b6040519080825280601f01601f191660200182016040528015611c91576020820181803683370190505b5090505b84156110f657611ca6600183612373565b9150611cb3600a8661240c565b611cbe906030612347565b60f81b818381518110611ce157634e487b7160e01b600052603260045260246000fd5b60200101907effffffffffffffffffffffffffffffffffffffffffffffffffffffffffffff1916908160001a905350611d1b600a8661235f565b9450611c95565b6001600160a01b038216611d785760405162461bcd60e51b815260206004820181905260248201527f4552433732313a206d696e7420746f20746865207a65726f206164647265737360448201526064016107cb565b6000818152600260205260409020546001600160a01b031615611ddd5760405162461bcd60e51b815260206004820152601c60248201527f4552433732313a20746f6b656e20616c7265616479206d696e7465640000000060448201526064016107cb565b6001600160a01b0382166000908152600360205260408120805460019290611e06908490612347565b909155505060008181526002602052604080822080546001600160a01b0319166001600160a01b03861690811790915590518392907fddf252ad1be2c89b69c2b068fc378daa952ba7f163c4a11628f55a4df523b3ef908290a45050565b828054611e70906123b6565b90600052602060002090601f016020900481019282611e925760008555611ed8565b82601f10611eab57805160ff1916838001178555611ed8565b82800160010185558215611ed8579182015b82811115611ed8578251825591602001919060010190611ebd565b50611ee4929150611ee8565b5090565b5b80821115611ee45760008155600101611ee9565b600067ffffffffffffffff80841115611f1857611f1861244c565b604051601f8501601f19908116603f01168101908282118183101715611f4057611f4061244c565b81604052809350858152868686011115611f5957600080fd5b858560208301376000602087830101525050509392505050565b80356001600160a01b0381168114611f8a57600080fd5b919050565b600060208284031215611fa0578081fd5b6119f782611f73565b60008060408385031215611fbb578081fd5b611fc483611f73565b9150611fd260208401611f73565b90509250929050565b600080600060608486031215611fef578081fd5b611ff884611f73565b925061200660208501611f73565b9150604084013590509250925092565b6000806000806080858703121561202b578081fd5b61203485611f73565b935061204260208601611f73565b925060408501359150606085013567ffffffffffffffff811115612064578182fd5b8501601f81018713612074578182fd5b61208387823560208401611efd565b91505092959194509250565b600080604083850312156120a1578182fd5b6120aa83611f73565b9150602083013580151581146120be578182fd5b809150509250929050565b600080604083850312156120db578182fd5b6120e483611f73565b946020939093013593505050565b600060208284031215612103578081fd5b81356119f781612462565b60006020828403121561211f578081fd5b81516119f781612462565b6000806040838503121561213c578182fd5b823567ffffffffffffffff811115612152578283fd5b8301601f81018513612162578283fd5b61217185823560208401611efd565b95602094909401359450505050565b600060208284031215612191578081fd5b5035919050565b600080604083850312156121aa578182fd5b82359150611fd260208401611f73565b600080604083850312156121cc578182fd5b50508035926020909101359150565b600081518084526121f381602086016020860161238a565b601f01601f19169290920160200192915050565b6000835161221981846020880161238a565b83519083019061222d81836020880161238a565b01949350505050565b60006001600160a01b0380871683528086166020840152508360408301526080606083015261226860808301846121db565b9695505050505050565b602080825282518282018190526000919060409081850190868401855b828110156122e3578151805185528681015187860152858101516001600160a01b03908116878701526060808301519091169086015260809081015115159085015260a0909301929085019060010161228f565b5091979650505050505050565b6020808252825182820181905260009190848201906040850190845b818110156123285783518352928401929184019160010161230c565b50909695505050505050565b6020815260006119f760208301846121db565b6000821982111561235a5761235a612420565b500190565b60008261236e5761236e612436565b500490565b60008282101561238557612385612420565b500390565b60005b838110156123a557818101518382015260200161238d565b83811115610e005750506000910152565b600181811c908216806123ca57607f821691505b602082108114156123eb57634e487b7160e01b600052602260045260246000fd5b50919050565b600060001982141561240557612405612420565b5060010190565b60008261241b5761241b612436565b500690565b634e487b7160e01b600052601160045260246000fd5b634e487b7160e01b600052601260045260246000fd5b634e487b7160e01b600052604160045260246000fd5b6001600160e01b03198116811461247857600080fd5b5056fea26469706673582212205cfd42393fd682778d2cda0264679c59e624d6f4409a80e6f2187e157d088c4664736f6c63430008040033",
  "linkReferences": {},
  "deployedLinkReferences": {}
}